:020000040000FA
:06000000D5EF8BF01200A9
:06000800EEEF5EF01200B5
:060018009CEF5EF01200F7
:06002A001300EA180100BA
:10003000E007000001000000E9180100DF070000F0
:1000400001000000E5180100780E00000400000027
:10005000E1180100FC06000004000000DE180100A9
:100060007C0E000003000000AC1801000007000037
:100070003200000034180100000E0000780000007B
:1000800033180100DE0700000100000031180100F4
:10009000D907000002000000FD170100C80600009B
:1000A00034000000FC170100DD0700000100000023
:1000B000FB170100DC07000001000000E511010052
:1000C000DB07000001000000F2170100F70200004A
:1000D00009000000F0170100D7070000020000002F
:1000E000EE1701005E0F000002000000EA17010099
:1000F000FC03000004000000E8170100FE040000FB
:1001000002000000E6170100FE00000002000000EF
:10011000240E07015A1906E1010E5B1903E15C5137
:1001200001E15D5102E12DEF10F0230E5A1906E1B5
:10013000010E5B1903E15C5101E15D5102E123EF26
:1001400010F0220E5A1906E1010E5B1903E15C5111
:1001500001E15D5102E121EF10F0210E5A1906E193
:10016000010E5B1903E15C5101E15D5102E11FEFFA
:1001700010F0200E5A1906E1010E5B1903E15C51E3
:1001800001E15D5102E11DEF10F01F0E5A1906E169
:10019000010E5B1903E15C5101E15D5102E11AEFCF
:1001A00010F01E0E5A1906E1010E5B1903E15C51B5
:1001B00001E15D5102E110EF10F01D0E5A1906E148
:1001C000010E5B1903E15C5101E15D5102E10EEFAB
:1001D00010F01C0E5A1906E1010E5B1903E15C5187
:1001E00001E15D5102E10CEF10F01B0E5A1906E11E
:1001F000010E5B1903E15C5101E15D5102E10AEF7F
:1002000010F01A0E5A1906E1010E5B1903E15C5158
:1002100001E15D5102E108EF10F0190E5A1906E1F3
:10022000010E5B1903E15C5101E15D5102E106EF52
:1002300010F0180E5A1906E1010E5B1903E15C512A
:1002400001E15D5102E104EF10F0170E5A1906E1C9
:10025000010E5B1903E15C5101E15D5102E101EF27
:1002600010F0160E5A1906E1010E5B1903E15C51FC
:1002700001E15D5102E1FBEF0FF0150E5A1906E1A5
:10028000010E5B1903E15C5101E15D5102E1F5EF03
:100290000FF0140E5A1906E1010E5B1903E15C51CF
:1002A00001E15D5102E1F3EF0FF0130E5A1906E17F
:1002B000010E5B1903E15C5101E15D5102E1F1EFD7
:1002C0000FF0120E5A1906E1010E5B1903E15C51A1
:1002D00001E15D5102E1EFEF0FF0110E5A1906E155
:1002E000010E5B1903E15C5101E15D5102E1ECEFAC
:1002F0000FF0100E5A1906E1010E5B1903E15C5173
:1003000001E15D5102E1E6EF0FF00F0E5A1906E12F
:10031000010E5B1903E15C5101E15D5102E1E4EF83
:100320000FF00E0E5A1906E1010E5B1903E15C5144
:1003300001E15D5102E1E2EF0FF00D0E5A1906E105
:10034000010E5B1903E15C5101E15D5102E1E0EF57
:100350000FF00C0E5A1906E1010E5B1903E15C5116
:1003600001E15D5102E1DEEF0FF00B0E5A1906E1DB
:10037000010E5B1903E15C5101E15D5102E1DCEF2B
:100380000FF00A0E5A1906E1010E5B1903E15C51E8
:1003900001E15D5102E1DAEF0FF0090E5A1906E1B1
:1003A000010E5B1903E15C5101E15D5102E1D7EF00
:1003B0000FF0080E5A1906E1010E5B1903E15C51BA
:1003C00001E15D5102E1D5EF0FF0070E5A1906E188
:1003D000010E5B1903E15C5101E15D5102E1CFEFD8
:1003E0000FF0060E5A1906E1010E5B1903E15C518C
:1003F00001E15D5102E1CDEF0FF0050E5A1906E162
:10040000010E5B1903E15C5101E15D5102E1CBEFAB
:100410000FF0040E5A1906E1010E5B1903E15C515D
:1004200001E15D5102E1C9EF0FF0030E5A1906E137
:10043000010E5B1903E15C5101E15D5102E1C6EF80
:100440000FF0020E5A1906E1010E5B1903E15C512F
:1004500001E15D5102E1C0EF0FF0010E5A1906E112
:10046000010E5B1903E15C5101E15D5102E1BEEF58
:100470000FF05A5106E1010E5B1903E15C5101E1F5
:100480005D5102E1BCEF0FF0E8685A1905E15B51DC
:1004900003E15C5101E15D5102E1BAEF0FF0FE0EA4
:1004A0005A1905E15B5103E15C5101E15D5102E143
:1004B000B8EF0FF0FD0E5A1905E15B5103E15C51F5
:1004C00001E15D5102E1B6EF0FF0FC0E5A1905E1B2
:1004D0005B5103E15C5101E15D5102E1B4EF0FF0CA
:1004E000FB0E5A1905E15B5103E15C5101E15D51DD
:1004F00002E1B1EF0FF0FA0E5A1905E15B5103E189
:100500005C5101E15D5102E1AFEF0FF0F90E5A19B4
:1005100005E15B5103E15C5101E15D5102E1A9EFAD
:100520000FF0F80E5A1905E15B5103E15C5101E14E
:100530005D5102E1A7EF0FF0F70E5A1905E15B518B
:1005400003E15C5101E15D5102E1A5EF0FF0F60E10
:100550005A1905E15B5103E15C5101E15D5102E192
:10056000A3EF0FF0F50E5A1905E15B5103E15C5161
:1005700001E15D5102E1A0EF0FF0F40E5A1905E11F
:100580005B5103E15C5101E15D5102E19AEF0FF033
:10059000F30E5A1905E15B5103E15C5101E15D5134
:1005A00002E198EF0FF0F20E5A1905E15B5103E1F9
:1005B0005C5101E15D5102E196EF0FF0F10E5A1925
:1005C00005E15B5103E15C5101E15D5102E194EF12
:1005D0000FF0F00E5A1905E15B5103E15C5101E1A6
:1005E0005D5102E192EF0FF0EF0E5A1905E15B51F8
:1005F00003E15C5101E15D5102E190EF0FF0EE0E7D
:100600005A1905E15B5103E15C5101E15D5102E1E1
:100610008EEF0FF0ED0E5A1905E15B5103E15C51CD
:1006200001E15D5102E18BEF0FF0EC0E5A1905E18B
:100630005B5103E15C5101E15D5102E189EF0FF093
:10064000EB0E5A1905E15B5103E15C5101E15D518B
:1006500002E183EF0FF0EA0E5A1905E15B5103E165
:100660005C5101E15D5102E181EF0FF0E90E5A1991
:1006700005E15B5103E15C5101E15D5102E17FEF76
:100680000FF0E80E5A1905E15B5103E15C5101E1FD
:100690005D5102E17DEF0FF0E70E5A1905E15B5164
:1006A00003E15C5101E15D5102E17AEF0FF0E60EEA
:1006B0005A1905E15B5103E15C5101E15D5102E131
:1006C00074EF0FF0E50E5A1905E15B5103E15C513F
:1006D00001E15D5102E172EF0FF0E40E5A1905E1FC
:1006E0005B5103E15C5101E15D5102E170EF0FF0FC
:1006F000E30E5A1905E15B5103E15C5101E15D51E3
:1007000002E16EEF0FF0E20E5A1905E15B5103E1D1
:100710005C5101E15D5102E16CEF0FF0E10E5A19FD
:1007200005E15B5103E15C5101E15D5102E16AEFDA
:100730000FF0E00E5A1905E15B5103E15C5101E154
:100740005D5102E168EF0FF0DF0E5A1905E15B51D0
:1007500003E15C5101E15D5102E165EF0FF0DE0E56
:100760005A1905E15B5103E15C5101E15D5102E180
:1007700063EF0FF0DD0E5A1905E15B5103E15C51A7
:1007800001E15D5102E15DEF0FF0DC0E5A1905E168
:100790005B5103E15C5101E15D5102E15BEF0FF060
:1007A000DB0E5A1905E15B5103E15C5101E15D513A
:1007B00002E159EF0FF0DA0E5A1905E15B5103E13E
:1007C0005C5101E15D5102E157EF0FF0D90E5A196A
:1007D00005E15B5103E15C5101E15D5102E154EF40
:1007E0000FF0D80E5A1905E15B5103E15C5101E1AC
:1007F0005D5102E14EEF0FF0D70E5A1905E15B5142
:1008000003E15C5101E15D5102E14CEF0FF0D60EC6
:100810005A1905E15B5103E15C5101E15D5102E1CF
:100820004AEF0FF0D50E5A1905E15B5103E15C5117
:1008300001E15D5102E148EF0FF0D40E5A1905E1D4
:100840005B5103E15C5101E15D5102E146EF0FF0C4
:10085000D30E5A1905E15B5103E15C5101E15D5191
:1008600002E144EF0FF0D20E5A1905E15B5103E1AA
:100870005C5101E15D5102E142EF0FF0D10E5A19D6
:1008800005E15B5103E15C5101E15D5102E13FEFA4
:100890000FF0D00E5A1905E15B5103E15C5101E103
:1008A0005D5102E13DEF0FF0CF0E5A1905E15B51AA
:1008B00003E15C5101E15D5102E137EF0FF0CE0E33
:1008C0005A1905E15B5103E15C5101E15D5102E11F
:1008D00035EF0FF0CD0E5A1905E15B5103E15C5184
:1008E00001E15D5102E133EF0FF0CC0E5A1905E141
:1008F0005B5103E15C5101E15D5102E131EF0FF029
:10090000CB0E5A1905E15B5103E15C5101E15D51E8
:1009100002E12EEF0FF0CA0E5A1905E15B5103E117
:100920005C5101E15D5102E128EF0FF0C90E5A1947
:1009300005E15B5103E15C5101E15D5102E126EF0C
:100940000FF0C80E5A1905E15B5103E15C5101E15A
:100950005D5102E124EF0FF0C70E5A1905E15B511A
:1009600003E15C5101E15D5102E122EF0FF0C60E9F
:100970005A1905E15B5103E15C5101E15D5102E16E
:1009800020EF0FF0C50E5A1905E15B5103E15C51F0
:1009900001E15D5102E11EEF0FF0C40E5A1905E1AD
:1009A0005B5103E15C5101E15D5102E11CEF0FF08D
:1009B000C30E5A1905E15B5103E15C5101E15D5140
:1009C00002E119EF0FF0C20E5A1905E15B5103E184
:1009D0005C5101E15D5102E117EF0FF0C10E5A19B0
:1009E00005E15B5103E15C5101E15D5102E111EF71
:1009F0000FF0C00E5A1905E15B5103E15C5101E1B2
:100A00005D5102E10FEF0FF0BF0E5A1905E15B5186
:100A100003E15C5101E15D5102E10DEF0FF0BE0E0B
:100A20005A1905E15B5103E15C5101E15D5102E1BD
:100A30000BEF0FF0BD0E5A1905E15B5103E15C515C
:100A400001E15D5102E108EF0FF0BC0E5A1905E11A
:100A50005B5103E15C5101E15D5102E102EF0FF0F6
:100A6000BB0E5A1905E15B5103E15C5101E15D5197
:100A700002E100EF0FF0BA0E5A1905E15B5103E1F4
:100A80005C5101E15D5102E1FEEF0EF0B90E5A1921
:100A900005E15B5103E15C5101E15D5102E1FCEFD5
:100AA0000EF0B80E5A1905E15B5103E15C5101E10A
:100AB0005D5102E1FAEF0EF0B70E5A1905E15B51F4
:100AC00003E15C5101E15D5102E1F8EF0EF0B60E79
:100AD0005A1905E15B5103E15C5101E15D5102E10D
:100AE000F6EF0EF0B50E5A1905E15B5103E15C51CA
:100AF00001E15D5102E1F3EF0EF0B40E5A1905E188
:100B00005B5103E15C5101E15D5102E1F1EF0EF057
:100B1000B30E5A1905E15B5103E15C5101E15D51EE
:100B200002E1EBEF0EF0B20E5A1905E15B5103E161
:100B30005C5101E15D5102E1E9EF0EF0B10E5A198D
:100B400005E15B5103E15C5101E15D5102E1E7EF39
:100B50000EF0B00E5A1905E15B5103E15C5101E161
:100B60005D5102E1E5EF0EF0AF0E5A1905E15B5160
:100B700003E15C5101E15D5102E1E2EF0EF0AE0EE6
:100B80005A1905E15B5103E15C5101E15D5102E15C
:100B9000DDEF0EF0AD0E5A1905E15B5103E15C513A
:100BA00001E15D5102E1D7EF0EF0AC0E5A1905E1FB
:100BB0005B5103E15C5101E15D5102E1D5EF0EF0C3
:100BC000AB0E5A1905E15B5103E15C5101E15D5146
:100BD00002E1D3EF0EF0AA0E5A1905E15B5103E1D1
:100BE0005C5101E15D5102E1D1EF0EF0A90E5A19FD
:100BF00005E15B5103E15C5101E15D5102E1CFEFA1
:100C00000EF0A80E5A1905E15B5103E15C5101E1B8
:100C10005D5102E1CDEF0EF0A70E5A1905E15B51CF
:100C200003E15C5101E15D5102E1CAEF0EF0A60E55
:100C30005A1905E15B5103E15C5101E15D5102E1AB
:100C4000C8EF0EF0A50E5A1905E15B5103E15C51A6
:100C500001E15D5102E1C2EF0EF0A40E5A1905E167
:100C60005B5103E15C5101E15D5102E1C0EF0EF027
:100C7000A30E5A1905E15B5103E15C5101E15D519D
:100C800002E1BEEF0EF0A20E5A1905E15B5103E13D
:100C90005C5101E15D5102E1BCEF0EF0A10E5A1969
:100CA00005E15B5103E15C5101E15D5102E1B9EF06
:100CB0000EF0A00E5A1905E15B5103E15C5101E110
:100CC0005D5102E1B3EF0EF09F0E5A1905E15B5141
:100CD00003E15C5101E15D5102E1B1EF0EF09E0EC6
:100CE0005A1905E15B5103E15C5101E15D5102E1FB
:100CF000AFEF0EF09D0E5A1905E15B5103E15C5117
:100D000001E15D5102E1ADEF0EF09C0E5A1905E1D3
:100D10005B5103E15C5101E15D5102E1ABEF0EF08B
:100D20009B0E5A1905E15B5103E15C5101E15D51F4
:100D300002E1A9EF0EF09A0E5A1905E15B5103E1A9
:100D40005C5101E15D5102E1A7EF0EF0990E5A19D5
:100D500005E15B5103E15C5101E15D5102E1A4EF6A
:100D60000EF0980E5A1905E15B5103E15C5101E167
:100D70005D5102E1A2EF0EF0970E5A1905E15B51A9
:100D800003E15C5101E15D5102E19CEF0EF0960E32
:100D90005A1905E15B5103E15C5101E15D5102E14A
:100DA0009AEF0EF0950E5A1905E15B5103E15C5183
:100DB00001E15D5102E198EF0EF0940E5A1905E140
:100DC0005B5103E15C5101E15D5102E196EF0EF0F0
:100DD000930E5A1905E15B5103E15C5101E15D514C
:100DE00002E193EF0EF0920E5A1905E15B5103E117
:100DF0005C5101E15D5102E18DEF0EF0910E5A1947
:100E000005E15B5103E15C5101E15D5102E18BEFD2
:100E10000EF0900E5A1905E15B5103E15C5101E1BE
:100E20005D5102E189EF0EF08F0E5A1905E15B5119
:100E300003E15C5101E15D5102E187EF0EF08E0E9E
:100E40005A1905E15B5103E15C5101E15D5102E199
:100E500085EF0EF08D0E5A1905E15B5103E15C51EF
:100E600001E15D5102E183EF0EF08C0E5A1905E1AC
:100E70005B5103E15C5101E15D5102E181EF0EF054
:100E80008B0E5A1905E15B5103E15C5101E15D51A3
:100E900002E17EEF0EF08A0E5A1905E15B5103E183
:100EA0005C5101E15D5102E17CEF0EF0890E5A19AF
:100EB00005E15B5103E15C5101E15D5102E177EF36
:100EC0000EF0880E5A1905E15B5103E15C5101E116
:100ED0005D5102E171EF0EF0870E5A1905E15B5189
:100EE00003E15C5101E15D5102E16FEF0EF0860E0E
:100EF0005A1905E15B5103E15C5101E15D5102E1E9
:100F00006DEF0EF0850E5A1905E15B5103E15C515E
:100F100001E15D5102E16AEF0EF0840E5A1905E11C
:100F20005B5103E15C5101E15D5102E164EF0EF0C0
:100F3000830E5A1905E15B5103E15C5101E15D51FA
:100F400002E162EF0EF0820E5A1905E15B5103E1F6
:100F50005C5101E15D5102E160EF0EF0810E5A1922
:100F600005E15B5103E15C5101E15D5102E15EEF9E
:100F70000EF0800E5A1905E15B5103E15C5101E16D
:100F80005D5102E15CEF0EF07F0E5A1905E15B51F5
:100F900003E15C5101E15D5102E15AEF0EF07E0E7A
:100FA0005A1905E15B5103E15C5101E15D5102E138
:100FB00058EF0EF07D0E5A1905E15B5103E15C51CB
:100FC00001E15D5102E155EF0EF07C0E5A1905E189
:100FD0005B5103E15C5101E15D5102E153EF0EF021
:100FE0007B0E5A1905E15B5103E15C5101E15D5152
:100FF00002E14DEF0EF07A0E5A1905E15B5103E163
:101000005C5101E15D5102E14BEF0EF0790E5A198E
:1010100005E15B5103E15C5101E15D5102E149EF02
:101020000EF0780E5A1905E15B5103E15C5101E1C4
:101030005D5102E147EF0EF0770E5A1905E15B5161
:1010400003E15C5101E15D5102E144EF0EF0760EE7
:101050005A1905E15B5103E15C5101E15D5102E187
:101060003EEF0EF0750E5A1905E15B5103E15C513C
:1010700001E15D5102E13CEF0EF0740E5A1905E1F9
:101080005B5103E15C5101E15D5102E13AEF0EF089
:10109000730E5A1905E15B5103E15C5101E15D51A9
:1010A00002E138EF0EF0720E5A1905E15B5103E1CF
:1010B0005C5101E15D5102E136EF0EF0710E5A19FB
:1010C00005E15B5103E15C5101E15D5102E134EF67
:1010D0000EF0700E5A1905E15B5103E15C5101E11C
:1010E0005D5102E132EF0EF06F0E5A1905E15B51CE
:1010F00003E15C5101E15D5102E12FEF0EF06E0E54
:101100005A1905E15B5103E15C5101E15D5102E1D6
:101110002DEF0EF06D0E5A1905E15B5103E15C51A4
:1011200001E15D5102E127EF0EF06C0E5A1905E165
:101130005B5103E15C5101E15D5102E125EF0EF0ED
:101140006B0E5A1905E15B5103E15C5101E15D5100
:1011500002E123EF0EF06A0E5A1905E15B5103E13B
:101160005C5101E15D5102E121EF0EF0690E5A1967
:1011700005E15B5103E15C5101E15D5102E11EEFCC
:101180000EF0680E5A1905E15B5103E15C5101E173
:101190005D5102E118EF0EF0670E5A1905E15B513F
:1011A00003E15C5101E15D5102E116EF0EF0660EC4
:1011B0005A1905E15B5103E15C5101E15D5102E126
:1011C00014EF0EF0650E5A1905E15B5103E15C5115
:1011D00001E15D5102E112EF0EF0640E5A1905E1D2
:1011E0005B5103E15C5101E15D5102E110EF0EF052
:1011F000630E5A1905E15B5103E15C5101E15D5158
:1012000002E10EEF0EF0620E5A1905E15B5103E1A7
:101210005C5101E15D5102E10CEF0EF0610E5A19D3
:1012200005E15B5103E15C5101E15D5102E109EF30
:101230000EF0600E5A1905E15B5103E15C5101E1CA
:101240005D5102E107EF0EF05F0E5A1905E15B51A7
:1012500003E15C5101E15D5102E101EF0EF05E0E30
:101260005A1905E15B5103E15C5101E15D5102E175
:10127000FFEF0DF05D0E5A1905E15B5103E15C5182
:1012800001E15D5102E1FDEF0DF05C0E5A1905E13F
:101290005B5103E15C5101E15D5102E1FBEF0DF0B7
:1012A0005B0E5A1905E15B5103E15C5101E15D51AF
:1012B00002E1F8EF0DF05A0E5A1905E15B5103E116
:1012C0005C5101E15D5102E1F2EF0DF0590E5A1946
:1012D00005E15B5103E15C5101E15D5102E1F0EF99
:1012E0000DF0580E5A1905E15B5103E15C5101E123
:1012F0005D5102E1EEEF0DF0570E5A1905E15B5119
:1013000003E15C5101E15D5102E1ECEF0DF0560E9D
:101310005A1905E15B5103E15C5101E15D5102E1C4
:10132000EAEF0DF0550E5A1905E15B5103E15C51EE
:1013300001E15D5102E1E8EF0DF0540E5A1905E1AB
:101340005B5103E15C5101E15D5102E1E6EF0DF01B
:10135000530E5A1905E15B5103E15C5101E15D5106
:1013600002E1E3EF0DF0520E5A1905E15B5103E182
:101370005C5101E15D5102E1E1EF0DF0510E5A19AE
:1013800005E15B5103E15C5101E15D5102E1DAEFFE
:101390000DF0500E5A1905E15B5103E15C5101E17A
:1013A0005D5102E1D8EF0DF04F0E5A1905E15B5186
:1013B00003E15C5101E15D5101E1F8D34E0E5A1990
:1013C00005E15B5103E15C5101E15D5101E1ECD3C9
:1013D0004D0E5A1905E15B5103E15C5101E15D518C
:1013E00001E1DFD34C0E5A1905E15B5103E15C5179
:1013F00001E15D5101E1CED34B0E5A1905E15B517C
:1014000003E15C5101E15D5101E1C2D34A0E5A1979
:1014100005E15B5103E15C5101E15D5101E1B6D3AE
:10142000490E5A1905E15B5103E15C5101E15D513F
:1014300001E1AAD3480E5A1905E15B5103E15C5161
:1014400001E15D5101E19ED3470E5A1905E15B515F
:1014500003E15C5101E15D5101E192D3460E5A195D
:1014600005E15B5103E15C5101E15D5101E186D38E
:10147000450E5A1905E15B5103E15C5101E15D51F3
:1014800001E179D3440E5A1905E15B5103E15C5146
:1014900001E15D5101E16CD3430E5A1905E15B5145
:1014A00003E15C5101E15D5101E160D3420E5A1943
:1014B00005E15B5103E15C5101E15D5101E154D370
:1014C000410E5A1905E15B5103E15C5101E15D51A7
:1014D00001E148D3400E5A1905E15B5103E15C512B
:1014E00001E15D5101E13CD33F0E5A1905E15B5129
:1014F00003E15C5101E15D5101E130D33E0E5A1927
:1015000005E15B5103E15C5101E15D5101E124D34F
:101510003D0E5A1905E15B5103E15C5101E15D515A
:1015200001E118D33C0E5A1905E15B5103E15C510E
:1015300001E15D5101E10CD33B0E5A1905E15B510C
:1015400003E15C5101E15D5101E100D33A0E5A190A
:1015500005E15B5103E15C5101E15D5101E1F4D230
:10156000390E5A1905E15B5103E15C5101E15D510E
:1015700001E1E8D2380E5A1905E15B5103E15C51F3
:1015800001E15D5101E1DCD2370E5A1905E15B51F1
:1015900003E15C5101E15D5101E1D0D2360E5A19EF
:1015A00005E15B5103E15C5101E15D5101E1C4D210
:1015B000350E5A1905E15B5103E15C5101E15D51C2
:1015C00001E1B8D2340E5A1905E15B5103E15C51D7
:1015D00001E15D5101E1ACD2330E5A1905E15B51D5
:1015E00003E15C5101E15D5101E1A0D2320E5A19D3
:1015F00005E15B5103E15C5101E15D5101E194D2F0
:10160000310E5A1905E15B5103E15C5101E15D5175
:1016100001E188D2300E5A1905E15B5103E15C51BA
:1016200001E15D5101E17CD22F0E5A1905E15B51B8
:1016300003E15C5101E15D5101E16CD22E0E5A19BA
:1016400005E15B5103E15C5101E15D5101E160D2D3
:101650002D0E5A1905E15B5103E15C5101E15D5129
:1016600001E153D22C0E5A1905E15B5103E15C51A3
:1016700001E15D5101E147D22B0E5A1905E15B51A1
:1016800003E15C5101E15D5101E13BD22A0E5A199F
:1016900005E15B5103E15C5101E15D5101E12FD2B4
:1016A000290E5A1905E15B5103E15C5101E15D51DD
:1016B00001E123D2280E5A1905E15B5103E15C5187
:1016C00001E15D5101E117D2270E5A1905E15B5185
:1016D00003E15C5101E15D5101E10BD2260E5A1983
:1016E00005E15B5103E15C5101E15D5101E1FBD199
:1016F000250E5A1905E15B5103E15C5101E15D5191
:1017000001E1EFD1240E5A1905E15B5103E15C516F
:1017100001E15D5101E1E3D1230E5A1905E15B516D
:1017200003E15C5101E15D5101E1D6D1220E5A196C
:1017300005E15B5103E15C5101E15D5101E1C6D17D
:10174000210E5A1905E15B5103E15C5101E15D5144
:1017500001E1BAD1200E5A1905E15B5103E15C5158
:1017600001E15D5101E1AED11F0E5A1905E15B5156
:1017700003E15C5101E15D5101E1A2D11E0E5A1954
:1017800005E15B5103E15C5101E15D5101E196D15D
:101790001D0E5A1905E15B5103E15C5101E15D51F8
:1017A00001E18AD11C0E5A1905E15B5103E15C513C
:1017B00001E15D5101E17ED11B0E5A1905E15B513A
:1017C00003E15C5101E15D5101E172D11A0E5A1938
:1017D00005E15B5103E15C5101E15D5101E166D13D
:1017E000190E5A1905E15B5103E15C5101E15D51AC
:1017F00001E15AD1180E5A1905E15B5103E15C5120
:1018000001E15D5101E14ED1170E5A1905E15B511D
:1018100003E15C5101E15D5101E142D1160E5A191B
:1018200005E15B5103E15C5101E15D5101E136D11C
:10183000150E5A1905E15B5103E15C5101E15D515F
:1018400001E12AD1140E5A1905E15B5103E15C5103
:1018500001E15D5101E11ED1130E5A1905E15B5101
:1018600003E15C5101E15D5101E112D1120E5A19FF
:1018700005E15B5103E15C5101E15D5101E1FFD004
:10188000110E5A1905E15B5103E15C5101E15D5113
:1018900001E1F2D0100E5A1905E15B5103E15C51F0
:1018A00001E15D5101E1E3D00F0E5A1905E15B51F1
:1018B00003E15C5101E15D5101E1D6D00E0E5A19F0
:1018C00005E15B5103E15C5101E15D5101E1C7D0EC
:1018D0000D0E5A1905E15B5103E15C5101E15D51C7
:1018E00001E1BAD00C0E5A1905E15B5103E15C51DC
:1018F00001E15D5101E1ABD00B0E5A1905E15B51DD
:1019000003E15C5101E15D5101E19ED00A0E5A19DB
:1019100005E15B5103E15C5101E15D5101E18FD0D3
:10192000090E5A1905E15B5103E15C5101E15D517A
:1019300001E182D0080E5A1905E15B5103E15C51C7
:1019400001E15D5101E173D0070E5A1905E15B51C8
:1019500003E15C5101E15D5167E0060E5A1905E1B2
:101960005B5103E15C5101E15D5159E0050E5A19EB
:1019700005E15B5103E15C5101E15D514CE0040E76
:101980005A1905E15B5103E15C5101E15D513DE014
:10199000030E5A1905E15B5103E15C5101E15D5110
:1019A00031E0020E5A1905E15B5103E15C5101E19E
:1019B0005D5125E0010E5A1905E15B5103E15C51CF
:1019C00001E15D5113E05A5101E049D35B5101E05F
:1019D00046D35C5101E043D35D5101E040D30701A0
:1019E000510E786FB00E796F000E06D00701460ECB
:1019F000786FB00E796F000E7A6F20EF19F0060144
:101A00007E6B67D0A1EC1AF002D00601826B836B6B
:101A10000601806B3AD0A1EC1AF0836B34D006013A
:101A2000826B836B010E2FD0A1EC1AF002D006015D
:101A3000826B836B020E27D0A1EC1AF002D0060154
:101A4000826B836B030E1FD0A1EC1AF002D006014B
:101A5000826B836B040E17D0A1EC1AF002D0060142
:101A6000826B836B050E0FD0A1EC1AF002D0060139
:101A7000826B836B060E07D0A1EC1AF002D0060130
:101A8000826B836B070E0601806F816BBDEF3EF0AA
:101A900011EF3DF012EF3DF013EF3DF014EF3DF08C
:101AA00015EF3DF016EF3DF017EF3DF018EF3DF06C
:101AB00049EF3DF0010E0BD0020E09D0030E07D006
:101AC000040E05D0050E03D0060E01D0070E060148
:101AD0007E6F7F6B69EF3EF006016C6B07D0010EE5
:101AE00003D0020E01D0030E06016C6F6D6BD8EFB0
:101AF0003CF052EF3FF06FEF3FF0A0EF3DF050EFC2
:101B000041F0E5EF40F009EF41F00601886B05D0A8
:101B1000010E01D0020E0601886F896BC6EF40F0FE
:101B20008AEF40F09EEF40F0B2EF40F09CEF3FF0C4
:101B300070EF3CF078EF3CF0A8EF3CF02AEF40F07B
:101B400062EF40F01FEF40F024EF40F030EF40F044
:101B50003AEF40F044EF40F04EEF40F058EF40F0E5
:101B600019EF3DF083EF40F085EF40F000EF42F0D9
:101B700006018A6B43D206018E6B0FD0010E0BD08B
:101B8000020E09D0030E07D0040E05D0050E03D0B7
:101B9000060E01D0070E06018E6F8F6B06018C6B4F
:101BA00046D20601926B09D0010E05D0020E03D079
:101BB000030E01D0040E0601926F936B0601906B29
:101BC00049D2010E19D206018E6B0FD0010EF6D04C
:101BD000020E09D0030E07D0040E05D0050E03D067
:101BE000060E01D0070E06018E6F8F6B010E1DD2FF
:101BF0000601926B09D0010E7BD0020E03D0030EBA
:101C000001D0040E0601926F936B010E21D2020ED9
:101C1000F3D106018E6B0FD0010E0BD0020ECED089
:101C2000030E07D0040E05D0050E03D0060E01D01A
:101C3000070E06018E6F8F6B020EF7D10601926BB5
:101C400009D0010E05D0020E53D0030E01D0040EB0
:101C50000601926F936B020EFBD1030ECDD10601EC
:101C60008E6B0FD0010E0BD0020E09D0030EA6D042
:101C7000040E05D0050E03D0060E01D0070E060196
:101C80008E6F8F6B030ED1D10601926B09D0010EBE
:101C900005D0020E03D0030E2BD0040E0601926F66
:101CA000936B030ED5D1040EA7D106018E6B0FD016
:101CB000010E0BD0020E09D0030E07D0040E7ED009
:101CC000050E03D0060E01D0070E06018E6F8F6B36
:101CD000040EABD10601926B07D0010E03D0020EA9
:101CE00001D0030E0601926F936B040EB1D1040E66
:101CF0000601926F936BACD1050E7ED106018E6BFF
:101D00000FD0010E0BD0020E09D0030E07D0040E27
:101D100005D0050E53D0060E01D0070E06018E6FBA
:101D20008F6B050E82D10601926B09D0010E05D092
:101D3000020E03D0030E01D0040E0601926F936BC6
:101D4000050E86D1060E58D106018E6B0FD0010EFE
:101D50000BD0020E09D0030E07D0040E05D0050EDD
:101D600003D0060E2BD0070E06018E6F8F6B060E6A
:101D70005CD10601926B09D0010E05D0020E03D092
:101D8000030E01D0040E0601926F936B060E60D114
:101D9000070E32D106018E6B0DD0010E09D0020E56
:101DA00007D0030E05D0040E03D0050E01D0060E99
:101DB00006018E6F8F6B070E38D1070E06018E6FEE
:101DC0008F6B33D10601926B09D0010E05D0020E44
:101DD00003D0030E01D0040E0601926F936B070E21
:101DE00037D1080E09D106018E6B0FD0010E0BD032
:101DF000020E09D0030E07D0040E05D0050E03D045
:101E0000060E01D0070E06018E6F8F6B080E0DD1E6
:101E10000601926B09D0010E05D0020E03D0030E0D
:101E200001D0040E0601926F936B080E11D1090EBA
:101E3000E3D006018E6B0FD0010E0BD0020E09D03D
:101E4000030E07D0040E05D0050E03D0060E01D0F8
:101E5000070E06018E6F8F6B090EE7D00601926B9D
:101E600009D0010E05D0020E03D0030E01D0040EDE
:101E70000601926F936B090EEBD00A0EBDD00601DE
:101E80008E6B0FD0010E0BD0020E09D0030E07D0BF
:101E9000040E05D0050E03D0060E01D0070E060174
:101EA0008E6F8F6B0A0EC1D00601926B09D0010EA6
:101EB00005D0020E03D0030E01D0040E0601926F6E
:101EC000936B0A0EC5D00B0E97D006018E6B0FD008
:101ED000010E0BD0020E09D0030E07D0040E05D060
:101EE000050E03D0060E01D0070E06018E6F8F6B14
:101EF0000B0E9BD00601926B09D0010E05D0020E8D
:101F000003D0030E01D0040E0601926F936B0B0EEB
:101F10009FD00C0E71D006018E6B0FD0010E0BD02E
:101F2000020E09D0030E07D0040E05D0050E03D013
:101F3000060E01D0070E06018E6F8F6B0C0E75D04A
:101F40000601926B09D0010E05D0020E03D0030EDC
:101F500001D0040E0601926F936B0C0E79D00D0E1A
:101F60004BD006018E6B0FD0010E0BD0020E09D0A4
:101F7000030E07D0040E05D0050E03D0060E01D0C7
:101F8000070E06018E6F8F6B0D0E4FD00601926B00
:101F900009D0010E05D0020E03D0030E01D0040EAD
:101FA0000601926F936B0D0E53D00E0E25D00601D5
:101FB0008E6B0FD0010E0BD0020E09D0030E07D08E
:101FC000040E05D0050E03D0060E01D0070E060143
:101FD0008E6F8F6B0E0E29D00601926B09D0010E09
:101FE00005D0020E03D0030E01D0040E0601926F3D
:101FF000936B0E0E2DD00F0E06018A6F8B6B95EF33
:1020000041F006018E6B0FD0010E0BD0020E09D0ED
:10201000030E07D0040E05D0050E03D0060E01D026
:10202000070E06018E6F8F6B0F0E06018C6F8D6B86
:102030000AEF42F00601926B09D0010E05D0020EA4
:1020400003D0030E01D0040E0601926F936B0F0EA6
:102050000601906F916B20EF42F064EF41F0040EA7
:102060000401696F6A6B0401410E666FB00E676F01
:10207000000E686F0DEC1CF0EFCF65F40EEF1FF053
:1020800004017E0E5F6F0DEC1CF0EFCF5EF446EFA7
:102090001EF00C01050E036F0C0E046F0301CC0E35
:1020A000CBEC1AF030EC85F00C01026F4DEC85F0B2
:1020B000600E0C01025D20E10301CD0ECBEC1AF0A5
:1020C0000C01026B0251146E156A140E145C000EA2
:1020D000155810E230EC85F0E66E0C0103CCE9FFF8
:1020E00004CCEAFF032B000E0423E552E750EF6E09
:1020F000022BE8D74DEC85F0050EE66E0C0EE66E71
:1021000031EC79F0E552E552F3CFF4F6F4CFF5F681
:102110000601F350F41003E1500EF46FF56B020169
:1021200014691569E76B020EE75D2DE2A4EC19F066
:10213000EF6A0401080E4B6FF4C649F4F5C64AF481
:102140000401486B0401446B456B466B476B1CEC08
:102150001DF0E66E0DEC1CF0E552E750EF6EE75116
:10216000F0EC19F0D2EC1AF0F3CF00FCF4CF01FC44
:1021700039EC1AF000CCA6F601CCA7F6A5EC6FF06E
:102180000201E72BD0D712000C01B96B020EB95D2A
:1021900036E2FAEC19F0EE52EF50FE082DE0FAECC0
:1021A00019F0EE52EFCF4CF4ACEC1DF0000914E046
:1021B000B9CC5EF725D817EC1BF0EF6AFF0E145D63
:1021C00002E05CEC1AF0FF0E155D02E063EC1AF021
:1021D0000401040E8BEC1BF00C01FAEC19F0EF502B
:1021E00007E1FAEC19F0EBEC19F0E9EC1BF004E074
:1021F000B9CC5EF705D83ED80C01B92BC7D7120071
:102200000201E75107015E5D01E112000201E751A1
:10221000F0EC19F0D2EC1AF0F3CF00FCF4CF01FC93
:1022200039EC1AF000CCA6F601CCA7F6A5EC6FF0BD
:1022300007015E51F0EC19F014C0A8F615C0A9F61C
:10224000B2EC6FF0F3CF00FCF4CF01FCE30E06011B
:10225000B86FB96B0601000EB66F020EB76F0DECCA
:1022600071F000CCA8F601CCA9F6B2EC6FF05EC715
:10227000E7F212000C01010E936F17EC1BF0EF5008
:102280000B0A01E1EFD3010A01E1C9D3030A01E11D
:10229000AFD3010A01E1A9D30F0A01E117D3010A63
:1022A00001E1F8D2030A01E170D2010A01E164D22E
:1022B000070A01E13DD2010A01E1A9D1030A27E0A1
:1022C000010A01E0DCD3B0EC1BF0F3CF8DFCF4CFBE
:1022D0008EFCF350F41001E1D2D302011A0E106FFC
:1022E000020E116FA4EC19F0010EEF6E1769166B58
:1022F000AEEC19F00C690D690E690F69006B016B8A
:10230000026B036BE26B0401050E8BEC1BF0C2EC5D
:1023100019F00A0E946F17EC1BF02BEC1BF01AEC63
:102320001BF00001F31C11E1151C0FE117EC1BF071
:1023300004EC1AF002E13AEC1BF0D8EC19F002E6DA
:102340000BEC1AF001E39BD338D2AEEC19F000ECA1
:102350001CF00C01050ED880F354000EF45403E277
:10236000050E8D6F8E6B010E6AEC1AF01A0E796FE6
:10237000020E7A6F88EC1BF0030EE66EE66ACB0E57
:10238000E66EA90EE66E000E6BEC1BF003E1020197
:10239000186B12D0040EE66EE66AC60EE66EA90E43
:1023A000E66E000E6BEC1BF004E10201010E186FEB
:1023B00003D00201060EC0D100EC1CF00401996BA1
:1023C000F3CF97F4F4CF98F40401956B966B040166
:1023D0003F0E946F17EC1BF074EC1AF00C01F350E5
:1023E0008D5DF4508E5904E38FCC8DFC90CC8EFC27
:1023F000BD0ED8808D55000E8E5501E2E5D0F5EC6E
:102400001BF0F3CF8FFCF4CF90FC1A0EF324E96E8F
:10241000020EF420EA6EA5EC1AF0D8EC1AF05AEC91
:102420001BF007C014F008C015F007C0E6FF08C095
:10243000E6FFD8EC1AF01B0EE66E020EE66E5AECC2
:1024400081F0166E070EE15E165000090CE17AEC81
:102450001AF0185102E1070E01D0080E186FA4EC13
:1024600019F0020E1FD231EC1AF002E084EC1AF0DF
:10247000FF0E0201145D2EE131EC1AF00EE00C01AA
:102480008FCCE9FF90CCEAFF8F2B000E90231A0E21
:10249000E926020EEA222F0EEF6EDFEC1AF01A0E7A
:1024A0000C018F25146E020E9021156E14C0E6FFEC
:1024B000E66E38EC82F0166E050EE15E1650DFEC2B
:1024C0001AF05AEC1BF007500C018F27085090238C
:1024D00084EC1AF01A0E0C018F25946F020E9021D5
:1024E000956F010E945F000E955B1A0E941902E130
:1024F000020E951909E094CCE9FF95CCEAFFEF5064
:102500002E0802E09407EFD7942B000E95230201CA
:10251000196B0B0EE76E1919E8AE02D0E73402D042
:10252000E750195D1CE219C2E9FFEA6AE9BEEA68F0
:1025300015EC1AF0000EE9260E0EEA22EECF23FF6C
:10254000EECF24FFEFCF25FF94CC21FF95CC22FFC7
:10255000D5EC67F0000903E00201192BDAD77AEC19
:102560001AF0FF0E145D18E014C2F2F0A6EC4FF062
:10257000F350020B11E014C2FDF0A0EC50F0F3CFC9
:10258000D4F0F4CFD5F0010E0001D427000ED523EE
:10259000FEEC4CF00201156F00EC1CF0F350F4104F
:1025A00026E00201010E166F0401910E766F0C0EEB
:1025B000776FE1EC1BF00C018D07000E8E5BC60EF1
:1025C0008D5D000E8E5903E30201040EB5D0F5ECCB
:1025D0001BF0F35002011027F450112310C2E9FF41
:1025E00011C2EAFF102B000E1123260EEF6E04EC31
:1025F0001CF0010EF32404017B6F000EF4207C6FAD
:102600000401F1EC1BF017EC1BF0020EEF6E04EC72
:102610001CF00C01F31C11E18E1D0FE117EC1BF0F7
:1026200004EC1AF002E13AEC1BF0D8EC19F002E6E7
:102630000BEC1AF001E323D2C0D0AEEC19F00C0180
:10264000010E8D190BE18E5109E1020EF4EC1AF026
:10265000F1EC1BF017EC1BF0030E24D10401996B75
:102660008DCC97F48ECC98F40401956B966B040195
:102670003A0E946F17EC1BF074EC1AF0020E0C017A
:102680008F27000E9023936B100ED8808F55000E6D
:10269000905502E2010E47D08FCC7BF490CC7CF4B5
:1026A0000401960E796F0C0E7A6F88EC1BF063ECC8
:1026B0001BF0960EE9260C0EEA22EF6A0C018F51F0
:1026C0008D5F90518E5B926B030E925D26E292516C
:1026D000030DF3CFE9FFF4CFEAFF6F0EE9260E0EEC
:1026E000EA22EECFE6FFEECFE6FFEFCFE6FF960E53
:1026F000E66E0C0EE66E01EC82F0146E050EE15EE5
:102700001450000907E192CC5FF781DA0C01010E49
:10271000936F03D00C01922BD7D7935102E004ECB6
:102720001CF0010E0C016AEC1AF0F1EC1BF06FD7F3
:10273000800E175D03E2020E186FB1D010C2E9FFE0
:1027400011C2EAFFA5EC1AF0F3CF10F2F4CF11F2A8
:10275000070E0201185D01E1A2D0A4EC19F0040EED
:10276000EF6E165104E1A4EC19F0050EEF6E0C01AA
:10277000936B0201166B83D1C3EC35F0020801E1C3
:102780007ED117EC1BF0050EEF6EB0EC1BF0DAEC0F
:102790001BF0F35002010C1914E115500D1911E151
:1027A00016500E190EE117500F190BE10AE1D8EC83
:1027B00019F002E60BEC1AF004E2B6EC1BF00B0E7B
:1027C00071D0180515E0080EE76E1819E8AE02D0B2
:1027D000E73402D0E750185D59E30A0EE76E181986
:1027E000E8AE02D0183503D0E750D88018554EE334
:1027F000080EE76E1819E8AE02D0E73402D0E750B1
:10280000185D13E30A0EE76E1819E8AE02D018350A
:1028100003D0E750D880185508E341EC18F00C01BC
:10282000916FE85006E102013AD05AEC38F00C0101
:10283000916F020E915D0CE1B3EC1BF0F9EC1AF014
:102840000201010E0C5F000E0D5B0E6B0F6B17D1BA
:1028500091051CE1B3EC1BF0F9EC1AF002010E6BD0
:102860000F6BAEEC19F047EC1AF00C5DEE500D5901
:10287000EE500E59EE500F5906E2A4EC19F004EC9C
:102880001AF001E0FCD00201050E08D017EC1BF095
:10289000060EEF6EFF0E145D07E1030E186FA4EC39
:1028A00019F0070EEF6E9ED0006B016B026B036B8D
:1028B000FF0E155D05E1046905690669076902D027
:1028C0008EEC1AF017EC1BF0070EEF6E0401020EEF
:1028D0008BEC1BF018C2E9FFEA6AE9BEEA6815EC66
:1028E0001AF0480EE9260E0EA6EC1BF00B0E0201A4
:1028F000185D0DE1BEEC1BF09E0E6F6FA90E706FA0
:10290000000EEDEC1BF0BEEC1BF081EC1BF00201A5
:10291000185106E0180504E0A4EC19F00B0EA0D045
:102920000B0E195D17E004018F0E6F6FA90E706F0B
:10293000000EEDEC1BF019C2E9FFEA6AE9BEEA6895
:1029400015EC1AF0240EE9260E0EA6EC1BF004017D
:1029500081EC1BF014C2F2F0A6EC4FF0F350010B27
:1029600008E00401760E6F6FA90E706F000EEDEC9B
:102970001BF00401660E6F6FA90E706F000EEDEC78
:102980001BF0020118050CE0E868041908E1E8688A
:10299000051905E1E868061902E1E868071907E08A
:1029A00004015D0E6F6FA90E706F000E0DD0040153
:1029B000540E6F6FA90E706F000EE6EC1BF0500EF8
:1029C0006F6FA90E706F000EE6EC1BF081EC1BF030
:1029D0000201165104E0A4EC19F0080E02D008EC34
:1029E0001CF0EF6E0C01936B4AD008EC1CF0EF6EFC
:1029F0000C01936B4AD8000909E05CEC1AF0A4ECD6
:102A000019F00B0EEF6E0C01010E936FDEEC1BF054
:102A1000E9EC1BF034E10C01010E936F30D00C0196
:102A2000010E936FDEEC1BF01AEC1BF0100EF35C42
:102A3000000EF45824E308C25AF709C25BF70AC231
:102A40005CF70BC25DF788EC00F002010C510D1130
:102A50000E110F1114E10C01936B17EC1BF0090E12
:102A6000EF6E0DD0FF0E145D02E05CEC1AF0FF0E6D
:102A7000155D02E063EC1AF0B6EC1BF0EF6A0C0196
:102A8000935102E13AEF11F01200DEEC1BF0F3CFAC
:102A900002FCF4CF03FCF3CF18F0F4CF19F01A6A5C
:102AA0001B6A47EC1AF00201045D1C6EEE500559DA
:102AB0001D6EEE5006591E6EEE5007591F6E1C50CB
:102AC000F35C1D50F4581E501A581F501B5807E253
:102AD00002CC14F003CC15F0166A176A0DD047EC3F
:102AE0001AF0045D146EEE500559156EEE5006593D
:102AF000166EEE500759176E14C000FC15C001FC8D
:102B00000C011450020100270C0115500201012391
:102B1000000E022303230C01000ED8800055000E86
:102B2000015530E2400E005D000E015905E200CC77
:102B3000DDF001CCDEF004D00001400EDD6FDE6B75
:102B40000001050EDB6F0C0EDC6F14C2DAF0ADEC89
:102B50004DF0F3CF02FCF4CF03FC0C01F350F41062
:102B600001E1010C02CC63F403CC64F40401050E12
:102B7000616F0C0ECDEC1BF00C010251005F035194
:102B8000015BC9D747EC1AF0020104193FE1EE508E
:102B900005193CE1EE50061939E1EE50071936E10E
:102BA00035E1D2DB0A0EEF6E0C6B0D6B0E6B0F6B0B
:102BB0000001D86BD96B14C2D7F04AEC4DF000017C
:102BC000040ED86F0C0ED96F14C2D7F04AEC4DF03A
:102BD000000906E0EDEC1AF07E0E0C01045DEFE159
:102BE000EDEC1AF00001080EE06F020EE16F15C265
:102BF000DFF0FEEC4DF08EEC1AF0000907E1020167
:102C0000046905690669076963EC1AF0000C07019D
:102C10005F0502E111EF16F0020E5F5D01E178D869
:102C20001200020117BF1200060EF4EC1AF0F1ECCC
:102C30001BF09AEC1BF0F3CF31FC030E0C01312793
:102C4000FC0E3117326B240E315D000E325903E356
:102C5000240E316F326B330E5B6F0C0E5C6F000E07
:102C6000D8803155000E325526E2040E04017B6FE8
:102C70007C6B5BCC79F45CCC7AF488EC1BF0030EB3
:102C80000F010F6F106B5BCC0DFF5CCC0EFF040EC1
:102C90000F010B6F0C6B5BCC09FF5CCC0AFF2CECBB
:102CA00066F0040E0C01315F000E325B030E5B27F1
:102CB000000E5C23D4D703EC1BF0EF6A316B326B50
:102CC000330E5B6F0C0E5C6F280E315D000E3259B7
:102CD0000BE203EC1BF0EF503A0806E0312B000E3C
:102CE00032235B2B5C23F0D703EC1BF05B2B000E35
:102CF0005C23EF6A5BCC68F65CCC69F60601330EA8
:102D0000666F0C0E676F75EC35F00201176F1200DD
:102D10009AEC1BF0F3CF31FCF4CF32FCF3CF7BF411
:102D2000F4CF7CF40401330E796F0C0E7A6F88ECCB
:102D30001BF0F3CF31FCF4CF32FC330E0C01F32443
:102D4000E96E0C0EF420EA6EEF6A330EE66E0C0E9E
:102D5000E66EA6EC79F0E552E55206C000F207C037
:102D600001F208C002F209C003F2120060C7E6FFD8
:102D700061C7E6FF7CEC1BF0F3CF04FCF4CF05FC4D
:102D800060C702FC61C703FC60C700FC61C701FCAF
:102D90000C01045105113FE0F3DB000E0123EFCFDE
:102DA00006FC0407055B3D0E065D03E0260E065D8E
:102DB00003E122DBEF6AECD72B0E065D03E11CDB9F
:102DC000200E23D0250E065D22E1020E045D000ECA
:102DD000055903E2046B056BDBD7D2DB000E012340
:102DE000EFCF08FCCDDB0123EFCF07FC0407055B29
:102DF0000407055B07CC1DFF08CC1EFF9DEC67F0A8
:102E0000E66E0C01F9DAE552E750EF6EC1D7F4DA5D
:102E100006CCEFFFBDD7F0DAEF6A02CCE9FF03CCB6
:102E2000EAFFEF6A02CCF3FF03CCF4FF120062C7A3
:102E3000E9FF63C7EAFFEF501FE0EADB64C7E6FF84
:102E400065C7E6FFE1EC81F0E552E552E552E55257
:102E500000090DE164C7E6FF65C7E6FF7CEC1BF0E7
:102E600007016251F324146E6351F4201BD343EC29
:102E70001BF043EC1BF0DBD7F36AF46A120066C761
:102E8000E9FF67C7EAFFEF5025E0FEDA07C014F05C
:102E900008C015F009C016F0142A000E15221622DB
:102EA00014C0E6FF15C0E6FF71EC1BF0B6DB5AEC70
:102EB00081F0176E070EE15E1750000908E1E4DAB1
:102EC000070166510724146E67510820EBD2E2DB3C
:102ED000E1DBD5D7F36AF46A12006DC776F76EC7E7
:102EE00077F76BC774F76CC775F707013D0E736F03
:102EF00046D80C016B6F07016B516C110BE06BC76F
:102F0000E9FF6CC7EAFFEF5005E16BC760F76CC7DC
:102F100061F72CDF0C016B51120009DB260E736F79
:102F20002ED80C016B6F020E6B5D17E1B3EC1BF03A
:102F3000DAEC1BF002010051F3180FE101511518F2
:102F40000CE10251161809E10351171806E105E1D9
:102F5000EEDA736B14D80C016B6F07016F517011AF
:102F60000BE06FC7E9FF70C7EAFFEF5005E06FC7DE
:102F700060F770C761F7FADE0C016B5112000701B0
:102F8000735106E08EDB73C794F451DB64DB01D030
:102F9000EADBF3CF69FCF4CF6AFC0C01F31C03E11C
:102FA0006A1D01E1020C0701020E765D000E7759E1
:102FB00005E27451751102E0E9DB35D074517511E9
:102FC00003E1E4DB0C0140D0C8DA0C016951145C68
:102FD0006A5115582CE276C77BF477C77CF404015C
:102FE000020E7B5F000E7C5BDEDB76C718F077C7D6
:102FF00019F0020E185E000E195A18500C01695D86
:1030000004017B6F19500C016A5904017C6F0401A3
:10301000E8DB15DBA2DA070174511424E96E75515F
:103020001520EA6EEF6A0C01010E686F0ED0FADA15
:10303000BADB070174510C016925E96E070175516E
:103040000C016A21EA6EEF6A686B0701735116E0A2
:103050000401766B776BB5DB146E156A166A176A16
:1030600014AE03D015681668176814500201005F8B
:103070001550015B1650025B1750035B0C01685141
:10308000120002011851090A01E185D0030A66E025
:10309000020A01E0D4D0DCD9040EB0DA4B0E896FFD
:1030A000A90E8A6F000E8B6FC2DA65DA6FDA0C0137
:1030B000F31C01E1421D44E041CC7BF442CC7CF4A2
:1030C0000401796B7A6BB3DA13DB4ADBB3DA0A0EED
:1030D000F35C000EF45805E20C01412B000E422374
:1030E000010C0A0E81DA310E796F0C0E7A6F9FDABD
:1030F000FFDA0A0EE66EE66A400EE66EA90EE66E8E
:10310000000EE66E310EE66E0C0E99D915E1020145
:10311000090E186FA1EC4EF00201146F060E0001AB
:10312000EB6FEC6B0001350EE96F0C0EEA6F14C209
:10313000E8F0E3EC4EF0020C02010A0E186F020CEC
:1031400012DBF3CF7BF4F4CF7CF40401040E7B5F3D
:10315000000E7C5B040145DB72DA010C01DBF6D862
:10316000F3D8EE52EFCF73F4F0EC1FF0640E0201CF
:10317000005D000E0159000E0259000E03595BE379
:10318000D880000E0055000E0155000E0255800E2D
:10319000035555E250D0E4DAF9D90CDBF3500201C3
:1031A000005DF4500159165002591750035904E2BA
:1031B00000C241FC01C242FC0C01000ED880415506
:1031C000000E42552CE2100E415D000E425905E200
:1031D00041CC7BF442CC7CF404D00401100E7B6F14
:1031E0007C6B0401310E796F0C0E7A6F91DAF3CF9C
:1031F00043FCF4CF44FCAAD80C01F350415FF450D7
:10320000425BF3CFEBF0F4CFECF00001310EE96F4D
:103210000C0EEA6F14C2E8F0E3EC4EF0CDD70201D9
:1032200000510111021103110AE10001010EED6FBD
:1032300029EC4FF0020188D8070EEF6E000C010C4C
:1032400002010C510D110E110F1114E178C7D1F0CC
:1032500079C7D2F07AC7D3F04CEC4CF00C01446F34
:10326000FF0E445D01E1120044CCFDF0A0EC50F0F3
:10327000C0D91AD00CC2D4F00DC2D5F0FEEC4CF07F
:103280000C01446FFF0E445D01E112000001020ECB
:10329000E76F0EC2E3F00FC2E4F00001E56BE66BEE
:1032A00044CCE2F012EC4EF089DAF3CF00FCF4CF1C
:1032B00001FC0C01000ED8800055000E015538E2CB
:1032C000400E005D000E015905E200CCDDF001CC9E
:1032D000DEF004D00001400EDD6FDE6B0001040E55
:1032E000DB6F0C0EDC6F44CCDAF0ADEC4DF0F3CFBD
:1032F00002FCF4CF03FC0C01F350F4100AE144CCBF
:10330000D6F03FEC4DF002010C6B0D6B0E6B0F6BAA
:10331000120002CC63F403CC64F40401040E616F68
:103320000C0E3BDA0C010251005F0351015BC1D767
:1033300044CCFCF06FEC50F006C00EF207C00FF268
:1033400044CCD6F03FEF4DF0E7518AD173D91FEF4F
:103350001BF0EE52EFCF78F45DEF20F0A6EC8AF090
:1033600006C008F207C009F208C00AF209C00BF251
:103370008A0E02010827F00E09231B0E0A23000EF5
:103380000B2312008ED904011200EE52EFCF6EF41F
:10339000A7EF1FF060D9F3CF8DFCF4CF8EFC1200A5
:1033A000ABD948D9010E1426000E15221450120074
:1033B000A6EC8AF002010851065C146E0951075808
:1033C000156E0A510858166E0B510958176EE834DD
:1033D000000E17181200EE52EFCF74F4FFEF1FF03B
:1033E000E30DE8D93A0E14261E0E1522000E162201
:1033F00017221200B95134D102CCE9FF03CCEAFF05
:10340000022B000E03231200EE52EFCF7DF4DFEC0F
:1034100020F0E9EF1BF0D880000E1454000E155474
:10342000000E1654000E17541200030EEA02F3CFDA
:10343000EAFFE902F3CFE9FFF450EA261200E66E54
:103440005AEC81F0146E070EE15E14500009120070
:103450000401926B0401906B916B04018E6B8F6B76
:10346000120031D91A0EE926020EEA22EF502F0877
:103470001200E30E0601BD6FBE6B0601000EBB6FAE
:10348000020EBC6F31EF71F02CD95AEF1BF0000E19
:10349000E96E020EEA6EEE501200EE52EFCF5DF4CE
:1034A00015EF1EF0156E010E1426000E152214C025
:1034B000F3FF15C0F4FF120014C2D6F03FEC4DF03C
:1034C00002011469120015C2D6F03FEC4DF0020162
:1034D000156912008D2504017B6F000E0C018E21F1
:1034E00004017C6F04011200B6D8F3CF8FFCF4CF37
:1034F00090FC120006011B0E646F020E656F59EC02
:1035000035F00201176F120000011B0ECF6F020E83
:10351000D06F99EC4BF00201146F12000001040E01
:10352000E06F020EE16F15C2DFF0FEEF4DF071C7E4
:1035300076F772C777F76FC774F770C775F707012B
:103540001200010E0601826F1200EF6A07011A0EC7
:10355000606F020E616FB6EF16F076C714F077C792
:1035600015F0020E145E000E155A1200EE52EFCF47
:10357000ACF43AEF2FF0EE52EFCF88F423EF22F0C5
:1035800000CCE9FF01CCEAFF002B1200F3CF41FC95
:10359000F4CF42FC1200EC6F010EED6FEE6BEF6B9F
:1035A00022EF85F014C0A6F615C0A7F6A5EF6FF0C0
:1035B000BB0EE66EA90EE66E000EE66E1200B10EB0
:1035C000E66EA90EE66E000EE66E1200EE52EFCF2A
:1035D0006BF48CEC1FF0040112000201002B000EB2
:1035E000012302230323120004017B6F7C6B04017F
:1035F0001200F3CF0CF2F4CF0DF2120004018C6F25
:103600008D6B040112005BCCE9FF5CCCEAFF120079
:1036100062C7E6FF63C7E6FF120066C7E6FF67C73B
:10362000E6FF120069CC7BF46ACC7CF41200020144
:10363000A4EF19F0F3CF14F0F4CF15F01200166ACE
:10364000176AF3500201005FF450015B1650025BF1
:103650001750035B1200EE52EFCF93F44EEF23F0BE
:10366000E96EEA6AD890E936EA36E30EE926020EF8
:10367000EA2212000201040E186F66DE070EEF6EDA
:103680000C01936B1200C4DF8BDE0701622715501B
:1036900063231200C2DF84DE07016627155067230B
:1036A00012000401996B0401976B986B0401956BF0
:1036B000966B12005FEC82F0E552E552E552120083
:1036C00048DEA6EF19F08FCCE9FF90CCEAFFE906BF
:1036D000000EEA5A1200E66E1A0EE66E020E1FEF98
:1036E0001AF068C7E6FF69C7E6FF6AC7E6FF12007F
:1036F00030DE4CDFA6EF19F051EC82F0E552E552D6
:103700001200E10E6F6F170E706F010EEDEF1BF0E0
:103710008EDFA9EF19F0B16F0401AF6BB06B010E32
:103720000401AD6FAE6B83DFB6EF1AF0946F7FDFED
:10373000CAEF19F08DDE020E61DFE10E896F170E00
:103740008A6F010E8B6F73DFBBEF1AF0EA22EECFA8
:103750006FF4EECF70F4EFCF71F469DFC5EF19F0BD
:10376000F3DDEBEF19F063DFEBEF19F0EDDDEE5277
:10377000EFCF4EF4BEEC1DF017EF1BF004011A0E54
:103780006C6F020E6D6F53DFE6EF1AF04BDF040132
:10379000796B7A6B4CDF60EF1BF0626F3ED8EFCF36
:1037A00060F493EF1EF074C779F475C77AF43FDFC5
:1037B00060EF1BF03FDF166A176A120038DF4DEF2B
:1037C0001AF02BD8EFCF75F420EF20F006D80401C3
:1037D000120030DFF350F4101200716F28DFC5EFD4
:1037E00019F0796B7A6B88EF1BF08DCC7BF48ECC63
:1037F0007CF404011A0E796F020E7A6F88EF1BF0C9
:10380000C1DD200E96EF1BF0BDDD0A0E96EF1BF01A
:10381000040177DF0CDF090E120009DFEE521200FF
:10382000040143510701D75D01E11200FE0ED75D8F
:103830000CE01C0EE66EE66A270EE66E040EE66EDF
:10384000D751E8EC32F058EC33F043C4D7F7FE0E12
:103850000401435D01E112001C0EE66EE66A43516D
:10386000E8EC32F0270EE66E040EE66E58EF33F009
:103870000701D751D85D01E11200FE0ED85D1EE0B0
:10388000250E0401B86FB96B0401010EB76F040176
:10389000020EB56F040EB66F53EC35F0EFCFB4F4F3
:1038A000D851B7EC31F0EECFB2F4EFCFB3F404015E
:1038B000250EB25F000EB35B1AEC30F0D7C7D8F715
:1038C000250E0401B86FB96B53EC35F0EFCFB7F4A8
:1038D000D751B7EC31F0EECFB5F4EFCFB6F4040129
:1038E000250EB55F000EB65B41EC34F0020EB26FF0
:1038F000040EB36F1AEF30F00C010B0E096F130EAC
:103900000A6F3C0EE66EE66AE66AC20EE66E040ECA
:10391000E66EC7EC81F0146E050EE15E14500C01EA
:10392000016B006B00511CEC32F001E384D000CC41
:1039300043F4C8EC33F0D6EC30F0F62A000EF72250
:10394000F8220800F5CF08FCD6EC30F0020EF6267F
:10395000000EF722F8220900F5CF02FC0A00F5CF8D
:1039600003FCD6EC30F0040EF626000EF722F82207
:103970000900F5CF04FC0A00F5CF05FC0C01085145
:1039800028E109CC06FC0ACC07FC250E176A0225A3
:10399000166E0351172246EC34F016500425146EAF
:1039A00017500521AAEC34F01450092715500A23AA
:1039B00009CC14F00ACC15F0166A176AD8803A0EB2
:1039C00014541E0E1554000E1654000E175402E225
:1039D000EFD7FFD7D6EC30F00800F5CF26F408CCAF
:1039E00042F4250E0C0106250401276F000E0C0180
:1039F00007210401286F27510C0102250401296FBA
:103A000028510C01032104012A6F010E2927000E01
:103A10002A2329510C01042504012B6F2A510C0182
:103A2000052104012C6F0D0E3D6F3E972EEC2AF000
:103A30000C01002B77D712000C01196B19511CECEB
:103A400032F001E388D019CC43F4EADE0D0E040114
:103A50003D5D01E07DD00CDF04014B51265D01E0AE
:103A600077D048510CE149C412F44AC413F43E879C
:103A7000040E3D6F49C440F44AC441F466D0000EC0
:103A8000005D040E015906E3880ED8800055130E20
:103A9000015503E2006B040E016F00C412F401C46F
:103AA00013F4002B000E012349C410F44AC411F48E
:103AB00086EC34F004013E894851040A21E0070AEB
:103AC00011E0020A02E0030A40E179EC33F0020E51
:103AD000485D02E0000E01D0010E2495E8B0248577
:103AE0003D6B33D046514425166E47514521F3ECCA
:103AF00032F079EC33F0F4EC33F0020E3D6F25D068
:103B000044C4E9FF45C4EAFF82EC33F044C4E9FF52
:103B100045C4EAFF1850EE24166E1950EE20F3EC5F
:103B200032F00A0EE66EE66A44C4E6FF45C4E6FFDC
:103B3000CCEC33F0DEEC32F00401050E3D6FB6EC58
:103B400034F0020EA06F44EC26F00C011951120063
:103B50000C01192B73D7FE0C4CC443F461DE040135
:103B60003FA902D03F99010C000C4DC443F458DE2C
:103B7000070E04013D5D01E0000C010C4EC443F44E
:103B8000FBEC33F004013D51080A20E0010A1EE07D
:103B9000050A1CE0020A17E0050A10E00D0A09E018
:103BA000010A07E0020A19E0040A10E1D6EC75F0F8
:103BB00014D0BFEC32F00401080E06D0BFEC32F096
:103BC00004010C0E01D00D0E3D6F12000401A16B1B
:103BD0000401140EA06F44EC26F02EEF2AF04FC41F
:103BE00043F4C8EC33F00A0EE66EE66ACCEC33F030
:103BF000500EE66E040EE66EDEEC32F010C45AF49F
:103C000011C45BF4500E146E040EC1EF31F05CC4AD
:103C100043F4C8EC33F004010E512D1902E10F51A9
:103C20002E1902E06EEC31F012005DC443F4F8DDB1
:103C30003DC445FC070E0C01455D06E00B0E455DDD
:103C400003E0F36AF46A120004012F512D5D305134
:103C50002E590EE3FDEC34F01606000E175A2F51C4
:103C60002D5D186E2E51305504EC35F0C1EF31F05A
:103C70002D512F5D146E30512E55156E1406000E09
:103C8000155A14C0F3FF15C0F4FF12005EC443F4CC
:103C9000C7DD5EC45DF4C9DFF3CF05FCF4CF06FCDD
:103CA0000C01F350F41001E1000C010E051904E1C0
:103CB000065102E14BEC34F004013F51010B0CE1E1
:103CC000E5EC34F00C010551145C0651155804E381
:103CD0004BEC34F004013F81010E0401B86FB96B65
:103CE0000401B76F04015F0EB56F040EB66FCCEC24
:103CF00034F004012D2B000E2E2329512D5D2A5165
:103D00002E5902E370EC33F00C01010E051905E1A8
:103D1000065103E14BEC34F0010C04013EBB02D030
:103D200046EC31F0010C0C01B46BB56B60C443F48C
:103D300077DD60C45DF479DFF3CFB2FCF4CFB3FC80
:103D40000C01F350F41005E14FEC34F0F36AF46A1F
:103D50001200B2CCB0FCB3CCB1FCD6EC33F004E230
:103D600063C4B0FC64C4B1FC3F51010B0CE1E5EC51
:103D700034F00C01B251145CB351155804E34FEC0C
:103D800034F004013F8104012D510C01B025146E63
:103D900004012E510C01B12102EC34F01EE32D512F
:103DA000295D0C01B46F04012E512A590C01B56F25
:103DB000B4CCB8F4E8CFB9F450EC32F00C01B45103
:103DC000040161270C01B551040162230C01B451B7
:103DD000B05FB551B15B70EC33F0B0CCB8F4B1CC9E
:103DE000B9F450EC32F00C01B05104012D270C0154
:103DF000B15104012E230C01D6EC33F003E34FEC58
:103E000034F004D03EBB02D046EC31F00C01B0518E
:103E1000B425146EB151B521C1EF31F00C01B46B72
:103E2000B56B65C443F4FCDC65C45DF4FEDEF3CF22
:103E3000B2FCF4CFB3FC0C01F350F41005E153ECE9
:103E400034F0F36AF46A120004013F51010B0CE1F3
:103E5000E5EC34F00C01B251145CB351155804E395
:103E600053EC34F004013F81B2CCB0FCB3CCB1FCD4
:103E700089EC33F004E269C4B0FC6AC4B1FC2D5192
:103E80000C01B025146E04012E510C01B12102EC7D
:103E900034F022E32D51295D0C01B46F04012E5141
:103EA0002A590C01B56FB4CCC0F4E8CFC1F498EC3A
:103EB00032F0B4CC14F0B5CC15F0166A14500401ED
:103EC000662715506723165068230C01B451B05F64
:103ED000B551B15B70EC33F0B0CCC0F4B1CCC1F4EF
:103EE00098EC32F00C01B05104012D270C01B151B6
:103EF00004012E2389EC33F003E353EC34F004D0B7
:103F00003EBB02D046EC31F00C01B051B425146E2A
:103F1000B151B521C1EF31F06CC4E6FF6DC4E6FFCD
:103F200051EC82F0E552E552F3CF63F4F4CF64F440
:103F30006CC461F46DC462F46BC460F4F4DE04011B
:103F40006C51F324146E6D51F420C1EF31F06FC445
:103F5000E6FF70C4E6FF71C4E6FF5FEC82F0E55255
:103F6000E552E55207C069F408C06AF46FC466F40C
:103F700070C467F471C468F46EC465F44FDF196AE5
:103F800004016F51F324146E7051F420156E7151B9
:103F90001920166E14C007F015C008F0096E120043
:103FA00072C443F43DDC04012751295D0C01026F0A
:103FB000040128512A590C01036F010E025F000E03
:103FC000035B72C45DF431DEF3CF00FCF4CF01FC7F
:103FD0000C01F350025D146E0351F454C1EF31F043
:103FE00073C474F40CD82BEC35F0F350F41006E0E5
:103FF00073C443F4FBEC33F06EEC31F0120074C484
:1040000043F40EDC3CEC33F006E33351315D146EC7
:104010003251345513D033512B5D166E2C5134551B
:10402000176E46EC34F02951315D186E32512A5525
:10403000196E16501824146E17501920C1EF31F064
:1040400075C474F4DCDFF3CF00FCF4CF01FC0C0189
:10405000F350F41001E1000C75C443F410EC1CF0B3
:104060000401765177110FE0010EB6EC33F033C442
:10407000B5F434C4B6F40401B46F76C4B2F477C4B2
:10408000B3F41AEC30F00401332B000E3423335117
:104090002B5D34512C5902E257EC34F00C01010E27
:1040A000001905E1015103E104013F85010C040100
:1040B0003EBB02D046EC31F0010C0C01026B036BED
:1040C00078C474F49CDFF3CF00FCF4CF01FC0C0146
:1040D000F350F41003E1F36AF46A120078C443F475
:1040E00010EC1CF004017B510C01005D04017C51BB
:1040F0000C01015904E200CC7BF401CC7CF40401F6
:1041000033517B25146E34517C21BCEC33F029E211
:1041100033512B5D0C01026F040134512C590C01F9
:10412000036F010E0227000E0323040179517A1157
:104130000EE002CCB8F403CCB9F459EC32F00C0127
:104140000251040179270C01035104017A230C0167
:10415000025104017B5F0C01035104017C5B57ECAD
:1041600034F079517A1106E07BC4B8F47CC4B9F418
:1041700059EC32F004017B5133277C5134230C017C
:10418000025104017B270C01035104017C237B5164
:104190000C01005D146E015104017C55156E145024
:1041A0007B5D15507C5902E33F8504D03EBB02D0B5
:1041B00046EC31F07BC4F3FF7CC4F4FF12007DC4F5
:1041C00043F410EC1CF0040129512B5D0C01026F2B
:1041D00004012A512C590C01036F7DC474F40FDFC4
:1041E0000C01F350025D146E0351F454C1EF31F031
:1041F00004018151821103E1F36AF46A12007EC462
:1042000043F410EC1CF07EC474F4F9DE0401835115
:10421000F35C0C01026F04018451F4580C01036F2C
:1042200092EC33F001E205D10401855186110DE0D5
:104230000C0102510401855D0C01035104018659F2
:1042400004E285C402FC86C403FC335183250C01BF
:10425000066F0401345184210C01076F06510401DB
:104260002B5D0C01075104012C5906E29AEC31F048
:104270000C01065F1550075B06CC00FC07CC01FC67
:104280000C01065104012B5D0C01046F0751040160
:104290002C590C01056F010E0427000E052383C461
:1042A00006FC84C407FC81C408FC82C409FC7FC4EA
:1042B0000AFC80C40BFC04017FC4E9FF80C4EAFF50
:1042C0007F2B8023EFCF0DFC0C010F6B0401875176
:1042D00009E0610E0C010D5D05E30D517A0802E362
:1042E000E00E0D270C01200E0E6FE850045D000E4D
:1042F000055902E204CC0EFC0E51025D000E03597A
:1043000002E202CC0EFC0E51B6EC33F000CCB5F458
:1043100001CCB6F441EC34F0100EB26F0C0EB36F5A
:104320001AEC30F00C010E5175EC33F000271550EB
:1043300001230E5175EC33F0045F1550055B0451F9
:10434000051106E129C400FC2AC401FC04690569C1
:10435000040187513EE00C010C6B0E510C5D5FE2D5
:1043600023EC32F0EFCF14F0610E145C0BE323EC7E
:1043700032F0EF507A0806E3E00E146E23EC32F0D0
:104380001450EF2623EC32F0EF500D5D0EE109ECF6
:1043900034F02CE0FAEC32F0610E0D5D18E30D51B3
:1043A0007A0815E3E00E0D2712D008CC81F409CC71
:1043B00082F40F510CE0A6EC32F0610E0C010D5DA1
:1043C00005E30D517A0802E3E00E0D270F6B0C2B6D
:1043D000C4D70C010C6B0E510C5D21E223EC32F0C2
:1043E000EF500D5D10E109EC34F00AE10C010851C9
:1043F000065D166E07510955176E0C5168EF32F0C5
:10440000FAEC32F00AD008CC81F409CC82F40F51D6
:1044100004E0A6EC32F00C010F6B0C2BDCD70C0186
:104420000E5175EC33F0025F1550035B92EC33F0E4
:1044300003E2F368F46812000E5175EC33F00627BE
:10444000155007234FD704018C518D1103E1F36AF6
:10445000F46A120088C443F410EC1CF088C474F4AD
:10446000CEDD04018E51F35C0C01026F04018F510B
:10447000F4580C01036F9BEC33F001E205D1040109
:10448000905191110DE00C0102510401905D0C015D
:1044900003510401915904E290C402FC91C403FC4D
:1044A00033518E250C01066F040134518F210C010C
:1044B000076F065104012B5D0C01075104012C59B3
:1044C00006E29AEC31F00C01065F1550075B06CC52
:1044D00000FC07CC01FC0C01065104012B5D0C0112
:1044E000046F075104012C590C01056F010E0427BC
:1044F000000E05238EC406FC8FC407FC8CC408FC88
:104500008DC409FC89C40AFC8AC40BFC8BC40CFC56
:10451000040189C4F6FF892B8AC4F7FFD4EC34F078
:10452000106B0401925109E0610E0C010E5D05E370
:104530000E517A0802E3E00E0E270C01200E0F6FD9
:10454000E850045D000E055902E204CC0FFC0F5147
:10455000025D000E035902E202CC0FFC0F51B6ECD3
:1045600033F000CCB5F401CCB6F441EC34F0110ECC
:10457000B26F0C0EB36F1AEC30F00C010F5175ECEA
:1045800033F00027155001230F5175EC33F0045F11
:104590001550055B0451051106E129C400FC2AC42D
:1045A00001FC04690569040192513EE00C010D6BA8
:1045B0000F510D5D5FE22AEC32F0EFCF14F0610E87
:1045C000145C0BE32AEC32F0EF507A0806E3E00EBD
:1045D000146E2AEC32F01450EF262AEC32F0EF5031
:1045E0000E5D0EE110EC34F02CE039EC32F0610E8F
:1045F0000E5D18E30E517A0815E3E00E0E2712D077
:1046000008CC8CF409CC8DF410510CE0CBEC31F0DB
:10461000610E0C010E5D05E30E517A0802E3E00E17
:104620000E27106B0D2BC4D70C010D6B0F510D5DB8
:1046300021E22AEC32F0EF500E5D10E110EC34F084
:104640000AE10C010851065D166E07510955176EF7
:104650000D5168EF32F039EC32F00AD008CC8CF40E
:1046600009CC8DF4105104E0CBEC31F00C01106B4F
:104670000D2BDCD70C010F5175EC33F0025F155098
:10468000035B9BEC33F003E2F368F46812000F5114
:1046900075EC33F00627155007234FD799C487F4DC
:1046A00097C485F498C486F495C483F496C484F4BE
:1046B000010E0401816F826B0401940E7F6F040E62
:1046C000806F93C47EF4F8EF20F00C01006B005172
:1046D0001CEC32F001E308D200CC43F410EC1CF0E7
:1046E0000C01036B016B026B04013F51020B03E1F0
:1046F0003F51040B0EE04AEC6EF000090AE00C0199
:10470000100E036F04013F51040B01E0010E0C0178
:10471000016F04013EAB11D0B0EC8AF004010650E9
:10472000395D146E07503A59156EE83402E25CECBC
:1047300034F003E30C01100E036F04013EAD09D009
:1047400042EC33F002E25CEC34F003E30C01100EB7
:10475000036F0B0E04013D5D0CE142EC33F002E20D
:104760005CEC34F006E30C01110E036F04010C0E37
:104770003D6F040E3D5D53E10C01046B056B030EB0
:10478000045D000E05594BE27CEC34F030EC35F062
:1047900046E07CEC34F0E5EC32F04BEC32F0040116
:1047A0004051141837E14151151834E138EC1CF030
:1047B0000A0EE66EE66A7CEC34F0A4EC33F0CCEC46
:1047C00033F079EC81F0060EE15E7CEC34F061ECC4
:1047D00034F0EECF10F4EDCF11F47CEC34F00C0E8D
:1047E00082EC34F0EECF0AF4EECF0BF4EECF0CF403
:1047F000EFCF0DF404010A2B0B230C230D23FDEC4A
:1048000031F00C01120E036F0401060E3D6F00EC37
:1048100031F005D00C01042B000E0523B0D70C019C
:1048200003510AE0015102E0000E01D0010E040123
:10483000A16F03CCA0F428DA04013EB92FD0070EF3
:104840003D5D01E04ED109EC32F001E04AD10401B6
:104850003E51070B060816E13E51080B01E0010E20
:104860000C01036F00CC4EF4BEEC1DF000CC4EF4F6
:10487000BEEC1DF00C01035101E033D104010E0E1A
:104880003D6F2FD138EC1CF00401020EA16F040122
:10489000100EC9EC34F072EC31F023D109EC32F097
:1048A00001E01FD138EC1CF004013D510C0A01E17C
:1048B000DFD0060A01E1D6D0030A01E1E2D0010A05
:1048C00001E1CCD00F0A01E1C0D00C0A01E1BDD05A
:1048D0000D0A01E1AFD0030A01E1A9D0060A57E0B1
:1048E000010A45E0030A21E0010A01E0CFD0D1EC42
:1048F00075F0000901E1CAD00401010E3D6F24A545
:104900000BD00701486F18C445F719C446F71AC4FD
:1049100047F703EC76F0BAD00701446F18C442F7AA
:1049200019C443F7E3EC75F0B1D00701060E496FE7
:104930000C0E4A6F26EC76F0000901E1A7D0D6EC08
:1049400075F0000910E006CC18F407CC19F408CC77
:104950001AF409CC1BF40401020E3D6FFDEC31F09A
:10496000F4EC33F093D072EC31F03D6B8FD0B0ECBF
:104970008AF006C039F407C03AF40701180EB06F88
:10498000040EB16FC1EC7EF00401030E4ED007019E
:104990001C0EB46F040EB56F0701180EB26F040E33
:1049A000B36FEEEC7EF000093AE139C418F03AC476
:1049B00019F01A6A1B6A39C4E6FF3AC4E6FF1AC046
:1049C000E6FF1BC0E6FFB0EC8AF0E552E7CF1BF034
:1049D000E552E7CF1AF0E552E7CF19F0E552E7CFFD
:1049E00018F000011850065C146E19500758156E27
:1049F0001A500858166E1B500958176E14500401AF
:104A0000025D1550035916500459175005593EE2DE
:104A1000060E255D02E217EC34F0020E06D00C0102
:104A2000020E036F016B0401050E3D6F2FD00C01C8
:104A3000020E23D0020E255D03E20C01120E1DD0E2
:104A40003EB71FD00C01020E07D0050E255D0DE309
:104A5000080E3D6F0C01110E036F18D0050E255D79
:104A600010E209D0050E255D0CE20C01100E05D0F8
:104A7000050E255D06E20C01110E036F010E016F9C
:104A800005D00C01140E036F010E026F0C010351CF
:104A900023E001511BE0040117EC34F0C3EC32F0C9
:104AA00015AE02D016681768E0EC31F01BEC33F05D
:104AB00008E2F6EC34F015AE02D016681768E0ECA8
:104AC00031F064EC34F00401A16B03D00401010E59
:104AD000A16F03CCA0F4D8D80C01025102E02EEC57
:104AE0002AF00C01002BF3D5046B056B030E045D5B
:104AF000000E05592FE27CEC34F030EC35F001E18A
:104B000012007CEC34F069EC34F020EC33F016C089
:104B1000E6FF17C0E6FFB0EC8AF0E552E7CF17F0EA
:104B2000E552E7CF16F01650065C146E1750075882
:104B3000156EDC0ED8801454010E155406E200ECFC
:104B400031F00C010407000E055B0C01042B000E74
:104B50000523CCD712009AC4E9FF9BC4EAFFEECF2D
:104B600014FCEECF15FCEECF16FCEFCF17FC9CC467
:104B7000E9FF9DC4EAFFEECF18FCEECF19FCEECFA3
:104B80001AFCEFCF1BFC0C011C6B060E1D6F9EC4A4
:104B90001EFC9FC41FFC9EC426FF9FC427FF14EC6D
:104BA00068F0F3CF1EFCF4CF1FFC0C0E0F012E6F2C
:104BB0002F6B0F01140E2C6F0C0E2D6F2FEC68F065
:104BC000F3CF20FCF4CF21FC0C01201F211F9EC439
:104BD000AEF69FC4AFF6E5EC6FF0F3CF22FCF4CF56
:104BE00023FC0C01F35020194CE12351211949E118
:104BF0000501F76BF86BDBEC84F0140E0601B86F5F
:104C0000B96B0601000EB66F0C0EB76F0DEC71F0AC
:104C10000401000EA66F0C0EA76FDFDB0C010C5118
:104C2000EAEC34F0040DF350146E156A140E145EA1
:104C3000000E155A14C024FC1450146E156AE85066
:104C400004019E5D9E6F15509F599F6F140E9E5FCD
:104C5000000E9F5B9AC4A4F49BC4A5F40401000E4B
:104C6000A26F0C0EA36F7EDA00090BE09EC4AAF4BB
:104C70009FC4ABF40401000EA86F0C0EA96F6DEC7D
:104C80002AF063EC6EF0010C38EC1CF00401A0A1DA
:104C900002D03F87A0913E9B3E9D3E9F3F933F9514
:104CA0003F914AEC6EF00009FCE0060E0401A015ED
:104CB00004E00C016B6B6C6BD7D00E512D190FE11A
:104CC0000F512E190CE10C016B6B6C6B04013FA7AB
:104CD000CBD01451151101E1C7D0A081C5D02D5101
:104CE0000E5D2E510F5939E20E512D5D0C016B6F87
:104CF00004010F512E59C0EC34F003E3F0EC34F012
:104D000002D031EC32F04DEC33F004E26DCC6BFCB0
:104D10006ECC6CFC180ED8806B55020E6C5502E2FE
:104D20001EEC34F004013FA70FD00C016D516B193C
:104D300002E16E516C1908E0180E6B1902E1020EC7
:104D40006C1902E00401A0816BCCB8F46CCCB9F40E
:104D500073EC32F0ADEC33F087D00E51295D0C01CD
:104D6000696F04010F512A590C016A6F69510401DE
:104D70002D25146E0C016A5104012E21156E275148
:104D8000145C0C016B6F040128511558C0EC34F011
:104D900003E3F0EC34F002D031EC32F04DEC33F0C0
:104DA00004E26DCC6BFC6ECC6CFC180ED8806B559D
:104DB000020E6C5502E21EEC34F004013FA70FD046
:104DC0000C016D516B1902E16E516C1908E0180E5F
:104DD0006B1902E1020E6C1902E00401A0810C01C2
:104DE00069516B5D6A516C5904E26BCC69FC6CCC07
:104DF0006AFC69CCB8F46ACCB9F473EC32F00C01FB
:104E000069516B5D696F6A516C596A6F69516A11BA
:104E100022E069CCB8F46ACCB9F442C4B7F427C430
:104E2000B5F428C4B6F40401B46B04010E51295D35
:104E3000146E2A510F55156E166A176A500E1426F5
:104E40000D0E1522000E1622172214C0B2F415C042
:104E5000B3F41AEC30F0ADEC33F029510E5D2A5169
:104E60000F5902E30BEC35F00C016B516C1104E1AE
:104E7000030E0401A01514E00C016B516C1102E04B
:104E80000401A0870401A1A107D0256BF20E026FD7
:104E90009E0E036F046B056B82EC32F03E8927D0C7
:104EA000A1A319D03E0EE96E040EEA6EEF50070B77
:104EB000E82AE850070BF36EF46EF80EEF14F310C7
:104EC000EF6E0607000E075B085B095B010E0C0125
:104ED0006B6F6C6B0CD03EA90AD0A1B106D0250730
:104EE000D890053304330333023382EC32F012C41A
:104EF00047FC13C448FC10C449FC11C44AFC06C456
:104F00004BFC07C44CFC08C44DFC09C44EFC0AC44D
:104F10004FFC0BC450FC0CC451FC0DC452FC0C01E2
:104F20005391539353955397A0C454FC596B5A6BA8
:104F30006B51040106270C016C5104010723000E7C
:104F400008230923A0A315D0A0B905D00C014F6BED
:104F5000506B516B526B040124A306D00C014B071C
:104F60004C5B4D5B4E5B05D0062B072308230923C2
:104F700024830401A0A10DD024A106D00C014B076D
:104F80004C5B4D5B4E5B05D0062B072308230923A2
:104F900024813CEC33F00AE307EC33F00C011650AB
:104FA000145C556F17501558566F0DD03151335D45
:104FB0000C01556F0401325134590C01566F010E2A
:104FC000555F000E565B83EC6EF0F3CF45FCF4CFDB
:104FD00046FC0C01400E455F000E465B800E4615F8
:104FE00002E0456B466B5551455D5651465904E20A
:104FF00045CC55FC46CC56FC0401470EA66F0C0E62
:10500000A76FEBD9140E0C016B27000E6C2353898C
:10501000539B538D539F0401A0A323D0040E0C0176
:105020006B27000E6C23020E5B6F040E5C6F020E8A
:105030005D6F140E5E6F010E146E530EE96E0C0E52
:10504000EA6EEF50EAEC34F014240F0BF36EF46EBA
:10505000F346F346F346F3460F0EEF14F310EF6EEC
:10506000F45019C55FFC1AC560FC1BC561FC1CC56A
:1050700062FC18C463FC19C464FC1AC465FC1BC43C
:1050800066FC0C01676B060E686F6BCC69FC6CCC20
:105090006AFC6BCC26FF6CCC27FF14EC68F0F3CFD6
:1050A00069FCF4CF6AFC0C0E0F012E6F2F6B0F0101
:1050B0005F0E2C6F0C0E2D6F2FEC68F0F3CF57FCAA
:1050C000F4CF58FC0C01571F581F0601280EA66F7D
:1050D0000D0EA76FA5EC6FF06BCCF5F56CCCF6F56B
:1050E0000501060EF46F0501180EF26F040EF36F42
:1050F00068EC84F0140E6CEC34F0470EBB6F0C0EB1
:10510000BC6F31EC71F00401A0A309D0040E6CEC6B
:1051100034F05B0EBB6F0C0EBC6F31EC71F006010E
:105120003C0EA86F0D0EA96FB2EC6FF06BCCAEF613
:105130006CCCAFF6E5EC6FF0F3CF45FCF4CF46FC5A
:1051400006014C0EA66F0D0EA76FA5EC6FF0020EB8
:105150006CEC34F0450EBB6F0C0EBC6F31EC71F093
:105160007CEF6FF06AEC31F0EE50ED1001E1000CD5
:105170000C01FE0E266FD1EC33F082EC33F0D1EC53
:1051800033F01850EE24166E1950EE20176EA0EC76
:1051900034F01650EE24146E1750EE20156E6AECA3
:1051A00031F01450EE18276F1550EE18286F256B4C
:1051B00025511CEC32F048E225CC43F410EC1CF0F5
:1051C0000D0E04013D5D3DE0040E3D5D0BE1FAEC8A
:1051D00034F01450401935E11550411932E125CC15
:1051E00026FC2FD00C012751040140192AE10C01A3
:1051F00028510401411925E138EC1CF0FAEC34F097
:105200000401125114181DE1135115181AE1A0ECF4
:1052100034F020EC33F01051161813E11151171827
:1052200010E1D1EC33F0EE5018190BE1EE501919E2
:1052300008E1EE501A1905E1EE501B1902E101E1F7
:10524000010C0C01252BB4D7FE0E265D21E026CCE7
:1052500043F4C8EC33F0FE0E0C01265D19E027CCB8
:1052600040F428CC41F4DEEC33F0CCEC33F0DEEC4F
:1052700032F0A0EC34F0EECF10F4EDCF11F46AEC84
:1052800031F0EECF12F4EDCF13F471EC34F0010CE9
:10529000A0EC34F00D0E82EC34F0EF50020B01E183
:1052A000000C0401FA51FB1101E0000C0C01296B08
:1052B0002A6B030E295D000E2A593BE276EC34F08E
:1052C00030EC35F036E076EC34F0E5EC32F04BECD7
:1052D00032F06AEC31F020EC33F01650141824E16F
:1052E0001750151821E176EC34F061EC34F04BECFA
:1052F00032F0A0EC34F020EC33F01650141814E126
:105300001750151811E1D1EC33F043EC35F0EE50A5
:105310000001141808E1EE50151805E1EE501618BA
:1053200002E1EE50171848E00C01292B000E2A2349
:10533000C0D7256B25511CEC32F04EE225CC43F44E
:1053400010EC1CF004013EA744D038EC1CF0FAEC41
:1053500034F01450040112193CE11550131939E1CD
:10536000DEEC33F076EC34F0A4EC33F058EC33F0B0
:10537000A0EC34F04BEC32F076EC34F061EC34F02D
:1053800014C0EEFF15C0EDFFA0EC34F0040E82EC6B
:1053900034F043EC35F00C0E82EC34F014C0EEFF28
:1053A00011EC35F0FAEC34F076EC34F0E5EC32F058
:1053B00014C0EEFF15C0EDFFB0EC8AF007C015F089
:1053C00076EC34F069EC34F006C0EEFF15C0EDFF6A
:1053D000000C0C01252BAED7000CA5EC34F05AECD8
:1053E00031F0F3CFEEFF15C0EDFFA5EC34F0020E67
:1053F00082EC34F05AEC31F0020EF3CFEBFF030EE7
:105400005FEC33F0040EA2EC31F0040E92EC32F0BB
:10541000080EA2EC31F0080E92EC32F00E0E82EC87
:1054200034F05AEC31F00E0EF3CFEBFF0F0E5FECC1
:1054300033F0E5EC32F05AEC31F0100EF3CFEBFF25
:10544000110E5FEC33F069EC34F05AEC31F0120ECF
:10545000F3CFEBFF130E15C0EBFF120038EC1CF07E
:1054600012C440F413C441F470EC33F027C42FF499
:1054700028C430F429C431F42AC432F457EC34F08F
:1054800004013E51080B02E0040E01D00D0E3D6FE9
:105490003E913E933E953E993E9B3E9D3E9F3F9161
:1054A0003F933F953F973F892491249324972499D4
:1054B00071EC34F0F2EC7AF0F3CF06F4F4CF07F4A9
:1054C000F2EC7AF0F3CF08F4F4CF09F40401226986
:1054D0002369010E146F156B1200BBEC34F00D0E36
:1054E00082EC34F0EFCF33FCBBEC34F0080E82ECEE
:1054F00034F0EECF34FCEECF35FCEECF36FCEFCF00
:1055000037FCBBEC34F0040E82EC34F0EECF38FC08
:10551000EECF39FCEECF3AFCEFCF3BFC04013E91DD
:105520003E933E953EB902D072EC31F03D51050AF2
:105530001DE0010A08E0AAC43CFCABC43DFC0C0120
:1055400033A140D03CD00C0133B50ED033A906D0E6
:1055500025EC33F0040EC9EC34F006D033A304D0AC
:10556000B5EC32F014EF33F02EEF2AF00C0133B526
:10557000120033A910D0C2EC33F00401061908E17F
:10558000EE50071905E1EE50081902E1EE50091935
:1055900002E07DEF31F00C0133A339EF2FF0B5ECD1
:1055A00032F018EC35F00C0133A907D06EEC31F075
:1055B0000401070E3D6F3E99120014EF33F03C2BAF
:1055C000000E3D2333A303D03C2B000E3D233CECC7
:1055D00033F00AE307EC33F00C011650145C316F22
:1055E00017501558326F0DD03151335D0C01316FAA
:1055F0000401325134590C01326F010E315F000E3B
:10560000325B0A0EE96E040EEA6EEE50385D2B6FC7
:10561000EE5039592C6FEE503A592D6FEE503B59E0
:105620002E6F2BCC2FFC2CCC30FC3E6B3C513D1113
:1056300064E03151321101E173D0800E2E1509E181
:10564000CCEC32F0E8AE02D0173402D0D5EC32F018
:105650003BE33CCC14F03DCC15F0166A176A2B0ED8
:10566000E96E0C0EEA6EEE501426EE501522EE5046
:105670001622EE5017221734000E171809E6D880AC
:10568000000E1454000E1554000E1654000E17543C
:105690001DE23C51315D186E32513D55196E1A6A4A
:1056A0001B6A19AE02D01A681B681B502E19E8AE8F
:1056B00002D02E3508D02B51185C2C5119582D5181
:1056C0001A582E511B5802E3010E3E6FCCEC32F0FB
:1056D000E8AE02D0173402D0D5EC32F021E22F51DF
:1056E0003C25186E30513D21196EE83419E21850EE
:1056F0000008000E195414E211D02B512C112D1159
:105700002E110CE0800E2E150BE1CCEC32F0E8AE41
:1057100002D0173402D0D5EC32F002E2010E3E6F17
:105720003E5104E133B5A5D36EEF31F0060E3315CB
:1057300002E02EEF2AF033A9120004013D510C0AB9
:1057400001E192D10B0A1CE00F0A1AE0010A18E0ED
:10575000020A16E0010A14E00C0A01E095D1C2EC3D
:1057600033F0061908E1EE50071905E1EE5008196B
:1057700002E1EE50091902E07DEF31F0070E3D6FB6
:105780000E512D5D0C01296F04010F512E590C0192
:105790002A6F800E2A1508E0040163EC31F01450E2
:1057A0000C01292715502A2329CC14F02ACC15F0F6
:1057B000166A176A34EC35F0EE501424256FEE505B
:1057C0001520266FEE501620276FEE501720286FF9
:1057D000C2EC33F0255D146EEE502659156EEE5076
:1057E0002759166EEE502859176E0001800E1714B7
:1057F00002E0E6EF33F00401C3EC32F015AE02D064
:105800001668176834EC35F01450EE5C0C01256F07
:105810001550EE58266F1650EE58276F1750EE5859
:10582000286F04011BEC33F00BE2F6EC34F014505B
:105830000C01255F1550265B1650275B1750285B1F
:10584000250EE96E0C0EEA6EEE500C01345D256FEC
:10585000EE503559266FEE503659276FEE503759B6
:10586000286FE834000E281909E6D880000E255567
:10587000000E2655000E2755000E28556CE2040137
:10588000F6EC34F00C012551145C265115582751C3
:105890001658285117585FE30401249724993F9123
:1058A0002FC429FC30C42AFC0C01255104012F27E8
:1058B0000C012651040130230C01295104010E5D15
:1058C0000C012A5104010F5909E31BEC33F02FE2BC
:1058D0000E512F5D146E30510F551BD063EC31F01B
:1058E0000E5114240C01296F04010F5115200C01D5
:1058F0002A6F04012F510C01295D040130510C0164
:105900002A5915E2295104012F5D146E30510C0102
:105910002A55156E00011450040106270001155088
:1059200004010723000E0823092364EC34F004016A
:1059300029512F5D2A51305906E363EC31F01450A0
:105940002F5F1550305B29510E5D2A510F5926E308
:105950000BEC35F023D004010E512F1902E10F5149
:1059600030191CE024A719D024A916D0C3EC32F0BA
:1059700015AE02D016681768E0EC31F01BEC33F07E
:1059800008E2F6EC34F015AE02D016681768E0ECC9
:1059900031F064EC34F03F85248924872D512F1990
:1059A00018E12E51301915E13FB702D03E9911D0C0
:1059B000C6EC31F00EE1EE5035190BE1EE50361920
:1059C00008E1EE50371905E104E104013E993F97E3
:1059D000249104011451151106E1C8EC32F0EE5087
:1059E000ED1001E03F8318EC35F0080E3D5D1CE141
:1059F000C6EC31F049E1EE50351946E1EE5036196A
:105A000043E1EE50371940E13FE186EC34F0BA0E45
:105A1000040135271A0E3623030E3723000E3823D0
:105A20003E89090E3D6F30D0090E3D5D0AE10C0143
:105A300033B12AD025EC33F0140EC9EC34F02EEF3C
:105A40002AF00A0E3D5D20E1C6EC31F00CE1EE508B
:105A5000351909E1EE50361906E1EE50371903E128
:105A600001E007D2FBDC1200C6EC31F00CE1EE5095
:105A7000351909E1EE50361906E1EE50371903E108
:105A800001E0F7D1EBDC12000C0133BB12000B0E6E
:105A900004013D5D01E112000A0E3D5D01E11200CD
:105AA0000C0E3D5D01E11200AA51AB1101E167D17D
:105AB0000C01303504E22F510008000E305501E290
:105AC000A2D043EC32F0146E156A2F51F35C05013D
:105AD000F76F0C01305115580501F86FDBEC84F0BD
:105AE0000C012F510401AA270C0130510401AB23F2
